{
  "_format": "hh-sol-artifact-1",
  "contractName": "RoyaltySplitterFactory",
  "sourceName": "contracts/RoyaltySplitterFactory.sol",
  "abi": [
    {
      "inputs": [
        {
          "internalType": "address",
          "name": "splitterImplementation",
          "type": "address"
        }
      ],
      "stateMutability": "nonpayable",
      "type": "constructor"
    },
    {
      "inputs": [],
      "name": "AccessControlBadConfirmation",
      "type": "error"
    },
    {
      "inputs": [
        {
          "internalType": "address",
          "name": "account",
          "type": "address"
        },
        {
          "internalType": "bytes32",
          "name": "neededRole",
          "type": "bytes32"
        }
      ],
      "name": "AccessControlUnauthorizedAccount",
      "type": "error"
    },
    {
      "inputs": [],
      "name": "FailedDeployment",
      "type": "error"
    },
    {
      "inputs": [
        {
          "internalType": "uint256",
          "name": "balance",
          "type": "uint256"
        },
        {
          "internalType": "uint256",
          "name": "needed",
          "type": "uint256"
        }
      ],
      "name": "InsufficientBalance",
      "type": "error"
    },
    {
      "anonymous": false,
      "inputs": [
        {
          "indexed": true,
          "internalType": "bytes32",
          "name": "role",
          "type": "bytes32"
        },
        {
          "indexed": true,
          "internalType": "bytes32",
          "name": "previousAdminRole",
          "type": "bytes32"
        },
        {
          "indexed": true,
          "internalType": "bytes32",
          "name": "newAdminRole",
          "type": "bytes32"
        }
      ],
      "name": "RoleAdminChanged",
      "type": "event"
    },
    {
      "anonymous": false,
      "inputs": [
        {
          "indexed": true,
          "internalType": "bytes32",
          "name": "role",
          "type": "bytes32"
        },
        {
          "indexed": true,
          "internalType": "address",
          "name": "account",
          "type": "address"
        },
        {
          "indexed": true,
          "internalType": "address",
          "name": "sender",
          "type": "address"
        }
      ],
      "name": "RoleGranted",
      "type": "event"
    },
    {
      "anonymous": false,
      "inputs": [
        {
          "indexed": true,
          "internalType": "bytes32",
          "name": "role",
          "type": "bytes32"
        },
        {
          "indexed": true,
          "internalType": "address",
          "name": "account",
          "type": "address"
        },
        {
          "indexed": true,
          "internalType": "address",
          "name": "sender",
          "type": "address"
        }
      ],
      "name": "RoleRevoked",
      "type": "event"
    },
    {
      "anonymous": false,
      "inputs": [
        {
          "indexed": true,
          "internalType": "address",
          "name": "splitter",
          "type": "address"
        },
        {
          "indexed": true,
          "internalType": "address",
          "name": "creator",
          "type": "address"
        },
        {
          "indexed": true,
          "internalType": "address",
          "name": "treasury",
          "type": "address"
        },
        {
          "indexed": false,
          "internalType": "uint16",
          "name": "creatorBps",
          "type": "uint16"
        },
        {
          "indexed": false,
          "internalType": "uint16",
          "name": "treasuryBps",
          "type": "uint16"
        }
      ],
      "name": "SplitterCreated",
      "type": "event"
    },
    {
      "inputs": [],
      "name": "ADMIN_ROLE",
      "outputs": [
        {
          "internalType": "bytes32",
          "name": "",
          "type": "bytes32"
        }
      ],
      "stateMutability": "view",
      "type": "function"
    },
    {
      "inputs": [],
      "name": "DEFAULT_ADMIN_ROLE",
      "outputs": [
        {
          "internalType": "bytes32",
          "name": "",
          "type": "bytes32"
        }
      ],
      "stateMutability": "view",
      "type": "function"
    },
    {
      "inputs": [
        {
          "internalType": "address",
          "name": "creator",
          "type": "address"
        },
        {
          "internalType": "address",
          "name": "treasury",
          "type": "address"
        },
        {
          "internalType": "uint16",
          "name": "creatorBps",
          "type": "uint16"
        },
        {
          "internalType": "uint16",
          "name": "treasuryBps",
          "type": "uint16"
        }
      ],
      "name": "createSplitter",
      "outputs": [
        {
          "internalType": "address",
          "name": "splitter",
          "type": "address"
        }
      ],
      "stateMutability": "nonpayable",
      "type": "function"
    },
    {
      "inputs": [
        {
          "internalType": "bytes32",
          "name": "role",
          "type": "bytes32"
        }
      ],
      "name": "getRoleAdmin",
      "outputs": [
        {
          "internalType": "bytes32",
          "name": "",
          "type": "bytes32"
        }
      ],
      "stateMutability": "view",
      "type": "function"
    },
    {
      "inputs": [
        {
          "internalType": "bytes32",
          "name": "role",
          "type": "bytes32"
        },
        {
          "internalType": "address",
          "name": "account",
          "type": "address"
        }
      ],
      "name": "grantRole",
      "outputs": [],
      "stateMutability": "nonpayable",
      "type": "function"
    },
    {
      "inputs": [
        {
          "internalType": "bytes32",
          "name": "role",
          "type": "bytes32"
        },
        {
          "internalType": "address",
          "name": "account",
          "type": "address"
        }
      ],
      "name": "hasRole",
      "outputs": [
        {
          "internalType": "bool",
          "name": "",
          "type": "bool"
        }
      ],
      "stateMutability": "view",
      "type": "function"
    },
    {
      "inputs": [],
      "name": "implementation",
      "outputs": [
        {
          "internalType": "address",
          "name": "",
          "type": "address"
        }
      ],
      "stateMutability": "view",
      "type": "function"
    },
    {
      "inputs": [
        {
          "internalType": "bytes32",
          "name": "role",
          "type": "bytes32"
        },
        {
          "internalType": "address",
          "name": "callerConfirmation",
          "type": "address"
        }
      ],
      "name": "renounceRole",
      "outputs": [],
      "stateMutability": "nonpayable",
      "type": "function"
    },
    {
      "inputs": [
        {
          "internalType": "bytes32",
          "name": "role",
          "type": "bytes32"
        },
        {
          "internalType": "address",
          "name": "account",
          "type": "address"
        }
      ],
      "name": "revokeRole",
      "outputs": [],
      "stateMutability": "nonpayable",
      "type": "function"
    },
    {
      "inputs": [
        {
          "internalType": "bytes4",
          "name": "interfaceId",
          "type": "bytes4"
        }
      ],
      "name": "supportsInterface",
      "outputs": [
        {
          "internalType": "bool",
          "name": "",
          "type": "bool"
        }
      ],
      "stateMutability": "view",
      "type": "function"
    }
  ],
  "bytecode": "0x60a060405234801561001057600080fd5b5060405161090738038061090783398101604081905261002f9161013d565b6001600160a01b0381166100725760405162461bcd60e51b81526020600482015260066024820152650696d706c3d360d41b604482015260640160405180910390fd5b6001600160a01b03811660805261008a600033610091565b505061016d565b6000828152602081815260408083206001600160a01b038516845290915281205460ff16610133576000838152602081815260408083206001600160a01b03861684529091529020805460ff191660011790556100eb3390565b6001600160a01b0316826001600160a01b0316847f2f8788117e7eff1d82e926ec794901d17c78024a50270940304540a733656f0d60405160405180910390a4506001610137565b5060005b92915050565b60006020828403121561014f57600080fd5b81516001600160a01b038116811461016657600080fd5b9392505050565b60805161077861018f6000396000818161015401526102f201526107786000f3fe608060405234801561001057600080fd5b506004361061009e5760003560e01c80635c60da1b116100665780635c60da1b1461014f57806375b238fc1461017657806391d148541461017e578063a217fddf14610176578063d547741f1461019157600080fd5b806301ffc9a7146100a3578063248a9ca3146100cb5780632f2ff15d146100fc57806336568abe1461011157806345398bae14610124575b600080fd5b6100b66100b1366004610629565b6101a4565b60405190151581526020015b60405180910390f35b6100ee6100d936600461065a565b60009081526020819052604090206001015490565b6040519081526020016100c2565b61010f61010a36600461068f565b6101db565b005b61010f61011f36600461068f565b610206565b6101376101323660046106cd565b61023e565b6040516001600160a01b0390911681526020016100c2565b6101377f000000000000000000000000000000000000000000000000000000000000000081565b6100ee600081565b6100b661018c36600461068f565b6103f1565b61010f61019f36600461068f565b61041a565b60006001600160e01b03198216637965db0b60e01b14806101d557506301ffc9a760e01b6001600160e01b03198316145b92915050565b6000828152602081905260409020600101546101f68161043f565b610200838361044c565b50505050565b6001600160a01b038116331461022f5760405163334bd91960e11b815260040160405180910390fd5b61023982826104de565b505050565b60006001600160a01b0385161580159061026057506001600160a01b03841615155b61029d5760405162461bcd60e51b81526020600482015260096024820152683d32b9379030b2323960b91b60448201526064015b60405180910390fd5b6102ae61ffff808416908516610721565b612710146102ed5760405162461bcd60e51b815260206004820152600c60248201526b073706c6974213d31303030360a41b6044820152606401610294565b61031f7f00000000000000000000000000000000000000000000000000000000000000006001600160a01b0316610549565b604051631b586aff60e01b81526001600160a01b038781166004830152868116602483015261ffff80871660448401528516606483015291925090821690631b586aff90608401600060405180830381600087803b15801561038057600080fd5b505af1158015610394573d6000803e3d6000fd5b50506040805161ffff8088168252861660208201526001600160a01b03808916945089811693508516917f6805fa05d82dbe869631cacbbf137435d37860e5364b543a25b489eff036861a910160405180910390a4949350505050565b6000918252602082815260408084206001600160a01b0393909316845291905290205460ff1690565b6000828152602081905260409020600101546104358161043f565b61020083836104de565b6104498133610556565b50565b600061045883836103f1565b6104d6576000838152602081815260408083206001600160a01b03861684529091529020805460ff1916600117905561048e3390565b6001600160a01b0316826001600160a01b0316847f2f8788117e7eff1d82e926ec794901d17c78024a50270940304540a733656f0d60405160405180910390a45060016101d5565b5060006101d5565b60006104ea83836103f1565b156104d6576000838152602081815260408083206001600160a01b0386168085529252808320805460ff1916905551339286917ff6391f5c32d9c69d2a47ea670b442974b53935d1edc7fd64eb21e047a839171b9190a45060016101d5565b60006101d5826000610593565b61056082826103f1565b61058f5760405163e2517d3f60e01b81526001600160a01b038216600482015260248101839052604401610294565b5050565b6000814710156105bf5760405163cf47918160e01b815247600482015260248101839052604401610294565b763d602d80600a3d3981f3363d3d373d3d3d363d730000008360601b60e81c176000526e5af43d82803e903d91602b57fd5bf38360781b176020526037600983f090506001600160a01b0381166101d55760405163b06ebf3d60e01b815260040160405180910390fd5b60006020828403121561063b57600080fd5b81356001600160e01b03198116811461065357600080fd5b9392505050565b60006020828403121561066c57600080fd5b5035919050565b80356001600160a01b038116811461068a57600080fd5b919050565b600080604083850312156106a257600080fd5b823591506106b260208401610673565b90509250929050565b803561ffff8116811461068a57600080fd5b600080600080608085870312156106e357600080fd5b6106ec85610673565b93506106fa60208601610673565b9250610708604086016106bb565b9150610716606086016106bb565b905092959194509250565b808201808211156101d557634e487b7160e01b600052601160045260246000fdfea2646970667358221220621f223e6cc02536c8637442f4598bdffc2834fad001f6ce6f8790f17e4b3c4564736f6c63430008180033",
  "linkReferences": {},
  "deployedLinkReferences": {}
}