{
  "_format": "hh-sol-artifact-1",
  "contractName": "StrDomainsNFT",
  "sourceName": "contracts/StrDomainsNFT.sol",
  "abi": [
    {
      "inputs": [
        {
          "internalType": "string",
          "name": "name_",
          "type": "string"
        },
        {
          "internalType": "string",
          "name": "symbol_",
          "type": "string"
        },
        {
          "internalType": "address",
          "name": "treasury_",
          "type": "address"
        },
        {
          "internalType": "address",
          "name": "splitterFactory_",
          "type": "address"
        },
        {
          "internalType": "uint96",
          "name": "",
          "type": "uint96"
        }
      ],
      "stateMutability": "nonpayable",
      "type": "constructor"
    },
    {
      "inputs": [],
      "name": "AccessControlBadConfirmation",
      "type": "error"
    },
    {
      "inputs": [
        {
          "internalType": "address",
          "name": "account",
          "type": "address"
        },
        {
          "internalType": "bytes32",
          "name": "neededRole",
          "type": "bytes32"
        }
      ],
      "name": "AccessControlUnauthorizedAccount",
      "type": "error"
    },
    {
      "inputs": [
        {
          "internalType": "uint256",
          "name": "numerator",
          "type": "uint256"
        },
        {
          "internalType": "uint256",
          "name": "denominator",
          "type": "uint256"
        }
      ],
      "name": "ERC2981InvalidDefaultRoyalty",
      "type": "error"
    },
    {
      "inputs": [
        {
          "internalType": "address",
          "name": "receiver",
          "type": "address"
        }
      ],
      "name": "ERC2981InvalidDefaultRoyaltyReceiver",
      "type": "error"
    },
    {
      "inputs": [
        {
          "internalType": "uint256",
          "name": "tokenId",
          "type": "uint256"
        },
        {
          "internalType": "uint256",
          "name": "numerator",
          "type": "uint256"
        },
        {
          "internalType": "uint256",
          "name": "denominator",
          "type": "uint256"
        }
      ],
      "name": "ERC2981InvalidTokenRoyalty",
      "type": "error"
    },
    {
      "inputs": [
        {
          "internalType": "uint256",
          "name": "tokenId",
          "type": "uint256"
        },
        {
          "internalType": "address",
          "name": "receiver",
          "type": "address"
        }
      ],
      "name": "ERC2981InvalidTokenRoyaltyReceiver",
      "type": "error"
    },
    {
      "inputs": [
        {
          "internalType": "address",
          "name": "sender",
          "type": "address"
        },
        {
          "internalType": "uint256",
          "name": "tokenId",
          "type": "uint256"
        },
        {
          "internalType": "address",
          "name": "owner",
          "type": "address"
        }
      ],
      "name": "ERC721IncorrectOwner",
      "type": "error"
    },
    {
      "inputs": [
        {
          "internalType": "address",
          "name": "operator",
          "type": "address"
        },
        {
          "internalType": "uint256",
          "name": "tokenId",
          "type": "uint256"
        }
      ],
      "name": "ERC721InsufficientApproval",
      "type": "error"
    },
    {
      "inputs": [
        {
          "internalType": "address",
          "name": "approver",
          "type": "address"
        }
      ],
      "name": "ERC721InvalidApprover",
      "type": "error"
    },
    {
      "inputs": [
        {
          "internalType": "address",
          "name": "operator",
          "type": "address"
        }
      ],
      "name": "ERC721InvalidOperator",
      "type": "error"
    },
    {
      "inputs": [
        {
          "internalType": "address",
          "name": "owner",
          "type": "address"
        }
      ],
      "name": "ERC721InvalidOwner",
      "type": "error"
    },
    {
      "inputs": [
        {
          "internalType": "address",
          "name": "receiver",
          "type": "address"
        }
      ],
      "name": "ERC721InvalidReceiver",
      "type": "error"
    },
    {
      "inputs": [
        {
          "internalType": "address",
          "name": "sender",
          "type": "address"
        }
      ],
      "name": "ERC721InvalidSender",
      "type": "error"
    },
    {
      "inputs": [
        {
          "internalType": "uint256",
          "name": "tokenId",
          "type": "uint256"
        }
      ],
      "name": "ERC721NonexistentToken",
      "type": "error"
    },
    {
      "anonymous": false,
      "inputs": [
        {
          "indexed": true,
          "internalType": "address",
          "name": "owner",
          "type": "address"
        },
        {
          "indexed": true,
          "internalType": "address",
          "name": "approved",
          "type": "address"
        },
        {
          "indexed": true,
          "internalType": "uint256",
          "name": "tokenId",
          "type": "uint256"
        }
      ],
      "name": "Approval",
      "type": "event"
    },
    {
      "anonymous": false,
      "inputs": [
        {
          "indexed": true,
          "internalType": "address",
          "name": "owner",
          "type": "address"
        },
        {
          "indexed": true,
          "internalType": "address",
          "name": "operator",
          "type": "address"
        },
        {
          "indexed": false,
          "internalType": "bool",
          "name": "approved",
          "type": "bool"
        }
      ],
      "name": "ApprovalForAll",
      "type": "event"
    },
    {
      "anonymous": false,
      "inputs": [
        {
          "indexed": false,
          "internalType": "uint256",
          "name": "_fromTokenId",
          "type": "uint256"
        },
        {
          "indexed": false,
          "internalType": "uint256",
          "name": "_toTokenId",
          "type": "uint256"
        }
      ],
      "name": "BatchMetadataUpdate",
      "type": "event"
    },
    {
      "anonymous": false,
      "inputs": [
        {
          "indexed": true,
          "internalType": "address",
          "name": "receiver",
          "type": "address"
        },
        {
          "indexed": false,
          "internalType": "uint96",
          "name": "bps",
          "type": "uint96"
        }
      ],
      "name": "DefaultRoyaltyUpdated",
      "type": "event"
    },
    {
      "anonymous": false,
      "inputs": [
        {
          "indexed": false,
          "internalType": "uint256",
          "name": "_tokenId",
          "type": "uint256"
        }
      ],
      "name": "MetadataUpdate",
      "type": "event"
    },
    {
      "anonymous": false,
      "inputs": [
        {
          "indexed": true,
          "internalType": "uint256",
          "name": "tokenId",
          "type": "uint256"
        },
        {
          "indexed": true,
          "internalType": "address",
          "name": "to",
          "type": "address"
        },
        {
          "indexed": true,
          "internalType": "address",
          "name": "creator",
          "type": "address"
        },
        {
          "indexed": false,
          "internalType": "string",
          "name": "tokenURI",
          "type": "string"
        },
        {
          "indexed": false,
          "internalType": "string",
          "name": "domain",
          "type": "string"
        }
      ],
      "name": "Minted",
      "type": "event"
    },
    {
      "anonymous": false,
      "inputs": [
        {
          "indexed": true,
          "internalType": "bytes32",
          "name": "role",
          "type": "bytes32"
        },
        {
          "indexed": true,
          "internalType": "bytes32",
          "name": "previousAdminRole",
          "type": "bytes32"
        },
        {
          "indexed": true,
          "internalType": "bytes32",
          "name": "newAdminRole",
          "type": "bytes32"
        }
      ],
      "name": "RoleAdminChanged",
      "type": "event"
    },
    {
      "anonymous": false,
      "inputs": [
        {
          "indexed": true,
          "internalType": "bytes32",
          "name": "role",
          "type": "bytes32"
        },
        {
          "indexed": true,
          "internalType": "address",
          "name": "account",
          "type": "address"
        },
        {
          "indexed": true,
          "internalType": "address",
          "name": "sender",
          "type": "address"
        }
      ],
      "name": "RoleGranted",
      "type": "event"
    },
    {
      "anonymous": false,
      "inputs": [
        {
          "indexed": true,
          "internalType": "bytes32",
          "name": "role",
          "type": "bytes32"
        },
        {
          "indexed": true,
          "internalType": "address",
          "name": "account",
          "type": "address"
        },
        {
          "indexed": true,
          "internalType": "address",
          "name": "sender",
          "type": "address"
        }
      ],
      "name": "RoleRevoked",
      "type": "event"
    },
    {
      "anonymous": false,
      "inputs": [
        {
          "indexed": true,
          "internalType": "uint256",
          "name": "tokenId",
          "type": "uint256"
        },
        {
          "indexed": false,
          "internalType": "uint256",
          "name": "price",
          "type": "uint256"
        },
        {
          "indexed": true,
          "internalType": "address",
          "name": "buyer",
          "type": "address"
        },
        {
          "indexed": false,
          "internalType": "uint64",
          "name": "at",
          "type": "uint64"
        }
      ],
      "name": "SaleRecorded",
      "type": "event"
    },
    {
      "anonymous": false,
      "inputs": [
        {
          "indexed": true,
          "internalType": "address",
          "name": "newFactory",
          "type": "address"
        }
      ],
      "name": "SplitterFactoryUpdated",
      "type": "event"
    },
    {
      "anonymous": false,
      "inputs": [
        {
          "indexed": true,
          "internalType": "uint256",
          "name": "tokenId",
          "type": "uint256"
        },
        {
          "indexed": true,
          "internalType": "address",
          "name": "splitter",
          "type": "address"
        },
        {
          "indexed": false,
          "internalType": "uint96",
          "name": "royaltyBps",
          "type": "uint96"
        }
      ],
      "name": "TokenSplitterSet",
      "type": "event"
    },
    {
      "anonymous": false,
      "inputs": [
        {
          "indexed": true,
          "internalType": "address",
          "name": "from",
          "type": "address"
        },
        {
          "indexed": true,
          "internalType": "address",
          "name": "to",
          "type": "address"
        },
        {
          "indexed": true,
          "internalType": "uint256",
          "name": "tokenId",
          "type": "uint256"
        }
      ],
      "name": "Transfer",
      "type": "event"
    },
    {
      "anonymous": false,
      "inputs": [
        {
          "indexed": true,
          "internalType": "address",
          "name": "newTreasury",
          "type": "address"
        }
      ],
      "name": "TreasuryUpdated",
      "type": "event"
    },
    {
      "inputs": [],
      "name": "CREATOR_SHARE_IN_ROY",
      "outputs": [
        {
          "internalType": "uint16",
          "name": "",
          "type": "uint16"
        }
      ],
      "stateMutability": "view",
      "type": "function"
    },
    {
      "inputs": [],
      "name": "DEFAULT_ADMIN_ROLE",
      "outputs": [
        {
          "internalType": "bytes32",
          "name": "",
          "type": "bytes32"
        }
      ],
      "stateMutability": "view",
      "type": "function"
    },
    {
      "inputs": [],
      "name": "DEFAULT_ROYALTY_BPS",
      "outputs": [
        {
          "internalType": "uint96",
          "name": "",
          "type": "uint96"
        }
      ],
      "stateMutability": "view",
      "type": "function"
    },
    {
      "inputs": [],
      "name": "MINTER_ROLE",
      "outputs": [
        {
          "internalType": "bytes32",
          "name": "",
          "type": "bytes32"
        }
      ],
      "stateMutability": "view",
      "type": "function"
    },
    {
      "inputs": [],
      "name": "SALES_ROLE",
      "outputs": [
        {
          "internalType": "bytes32",
          "name": "",
          "type": "bytes32"
        }
      ],
      "stateMutability": "view",
      "type": "function"
    },
    {
      "inputs": [],
      "name": "TREASURY_SHARE_IN_ROY",
      "outputs": [
        {
          "internalType": "uint16",
          "name": "",
          "type": "uint16"
        }
      ],
      "stateMutability": "view",
      "type": "function"
    },
    {
      "inputs": [
        {
          "internalType": "address",
          "name": "to",
          "type": "address"
        },
        {
          "internalType": "uint256",
          "name": "tokenId",
          "type": "uint256"
        }
      ],
      "name": "approve",
      "outputs": [],
      "stateMutability": "nonpayable",
      "type": "function"
    },
    {
      "inputs": [
        {
          "internalType": "address",
          "name": "owner",
          "type": "address"
        }
      ],
      "name": "balanceOf",
      "outputs": [
        {
          "internalType": "uint256",
          "name": "",
          "type": "uint256"
        }
      ],
      "stateMutability": "view",
      "type": "function"
    },
    {
      "inputs": [
        {
          "internalType": "uint256",
          "name": "tokenId",
          "type": "uint256"
        }
      ],
      "name": "burn",
      "outputs": [],
      "stateMutability": "nonpayable",
      "type": "function"
    },
    {
      "inputs": [
        {
          "internalType": "uint256",
          "name": "tokenId",
          "type": "uint256"
        }
      ],
      "name": "creatorOf",
      "outputs": [
        {
          "internalType": "address",
          "name": "",
          "type": "address"
        }
      ],
      "stateMutability": "view",
      "type": "function"
    },
    {
      "inputs": [
        {
          "internalType": "uint256",
          "name": "tokenId",
          "type": "uint256"
        }
      ],
      "name": "getApproved",
      "outputs": [
        {
          "internalType": "address",
          "name": "",
          "type": "address"
        }
      ],
      "stateMutability": "view",
      "type": "function"
    },
    {
      "inputs": [],
      "name": "getLastId",
      "outputs": [
        {
          "internalType": "uint256",
          "name": "",
          "type": "uint256"
        }
      ],
      "stateMutability": "view",
      "type": "function"
    },
    {
      "inputs": [
        {
          "internalType": "bytes32",
          "name": "role",
          "type": "bytes32"
        }
      ],
      "name": "getRoleAdmin",
      "outputs": [
        {
          "internalType": "bytes32",
          "name": "",
          "type": "bytes32"
        }
      ],
      "stateMutability": "view",
      "type": "function"
    },
    {
      "inputs": [
        {
          "internalType": "uint256",
          "name": "tokenId",
          "type": "uint256"
        }
      ],
      "name": "getTokenData",
      "outputs": [
        {
          "internalType": "address",
          "name": "creator",
          "type": "address"
        },
        {
          "internalType": "uint64",
          "name": "mintedAt_",
          "type": "uint64"
        },
        {
          "internalType": "string",
          "name": "uri",
          "type": "string"
        },
        {
          "internalType": "uint256",
          "name": "lastPrice",
          "type": "uint256"
        },
        {
          "internalType": "uint64",
          "name": "lastAt",
          "type": "uint64"
        },
        {
          "internalType": "string",
          "name": "domainName",
          "type": "string"
        }
      ],
      "stateMutability": "view",
      "type": "function"
    },
    {
      "inputs": [
        {
          "internalType": "string",
          "name": "domainName",
          "type": "string"
        }
      ],
      "name": "getTokenDataByDomain",
      "outputs": [
        {
          "internalType": "address",
          "name": "creator",
          "type": "address"
        },
        {
          "internalType": "uint64",
          "name": "mintedAt_",
          "type": "uint64"
        },
        {
          "internalType": "string",
          "name": "uri",
          "type": "string"
        },
        {
          "internalType": "uint256",
          "name": "lastPrice",
          "type": "uint256"
        },
        {
          "internalType": "uint64",
          "name": "lastAt",
          "type": "uint64"
        },
        {
          "internalType": "uint256",
          "name": "tokenId",
          "type": "uint256"
        }
      ],
      "stateMutability": "view",
      "type": "function"
    },
    {
      "inputs": [
        {
          "internalType": "bytes32",
          "name": "role",
          "type": "bytes32"
        },
        {
          "internalType": "address",
          "name": "account",
          "type": "address"
        }
      ],
      "name": "grantRole",
      "outputs": [],
      "stateMutability": "nonpayable",
      "type": "function"
    },
    {
      "inputs": [
        {
          "internalType": "bytes32",
          "name": "role",
          "type": "bytes32"
        },
        {
          "internalType": "address",
          "name": "account",
          "type": "address"
        }
      ],
      "name": "hasRole",
      "outputs": [
        {
          "internalType": "bool",
          "name": "",
          "type": "bool"
        }
      ],
      "stateMutability": "view",
      "type": "function"
    },
    {
      "inputs": [
        {
          "internalType": "address",
          "name": "owner",
          "type": "address"
        },
        {
          "internalType": "address",
          "name": "operator",
          "type": "address"
        }
      ],
      "name": "isApprovedForAll",
      "outputs": [
        {
          "internalType": "bool",
          "name": "",
          "type": "bool"
        }
      ],
      "stateMutability": "view",
      "type": "function"
    },
    {
      "inputs": [
        {
          "internalType": "uint256",
          "name": "tokenId",
          "type": "uint256"
        }
      ],
      "name": "lastSaleOf",
      "outputs": [
        {
          "internalType": "uint256",
          "name": "price",
          "type": "uint256"
        },
        {
          "internalType": "uint64",
          "name": "at",
          "type": "uint64"
        }
      ],
      "stateMutability": "view",
      "type": "function"
    },
    {
      "inputs": [
        {
          "internalType": "address",
          "name": "to",
          "type": "address"
        },
        {
          "internalType": "string",
          "name": "uri",
          "type": "string"
        },
        {
          "internalType": "string",
          "name": "domainName",
          "type": "string"
        }
      ],
      "name": "mint",
      "outputs": [
        {
          "internalType": "uint256",
          "name": "tokenId",
          "type": "uint256"
        }
      ],
      "stateMutability": "nonpayable",
      "type": "function"
    },
    {
      "inputs": [
        {
          "internalType": "uint256",
          "name": "tokenId",
          "type": "uint256"
        }
      ],
      "name": "mintedAt",
      "outputs": [
        {
          "internalType": "uint64",
          "name": "",
          "type": "uint64"
        }
      ],
      "stateMutability": "view",
      "type": "function"
    },
    {
      "inputs": [],
      "name": "name",
      "outputs": [
        {
          "internalType": "string",
          "name": "",
          "type": "string"
        }
      ],
      "stateMutability": "view",
      "type": "function"
    },
    {
      "inputs": [
        {
          "internalType": "uint256",
          "name": "tokenId",
          "type": "uint256"
        }
      ],
      "name": "ownerOf",
      "outputs": [
        {
          "internalType": "address",
          "name": "",
          "type": "address"
        }
      ],
      "stateMutability": "view",
      "type": "function"
    },
    {
      "inputs": [
        {
          "internalType": "uint256",
          "name": "tokenId",
          "type": "uint256"
        },
        {
          "internalType": "uint256",
          "name": "price",
          "type": "uint256"
        },
        {
          "internalType": "address",
          "name": "buyer",
          "type": "address"
        }
      ],
      "name": "recordSale",
      "outputs": [],
      "stateMutability": "nonpayable",
      "type": "function"
    },
    {
      "inputs": [
        {
          "internalType": "bytes32",
          "name": "role",
          "type": "bytes32"
        },
        {
          "internalType": "address",
          "name": "callerConfirmation",
          "type": "address"
        }
      ],
      "name": "renounceRole",
      "outputs": [],
      "stateMutability": "nonpayable",
      "type": "function"
    },
    {
      "inputs": [
        {
          "internalType": "bytes32",
          "name": "role",
          "type": "bytes32"
        },
        {
          "internalType": "address",
          "name": "account",
          "type": "address"
        }
      ],
      "name": "revokeRole",
      "outputs": [],
      "stateMutability": "nonpayable",
      "type": "function"
    },
    {
      "inputs": [
        {
          "internalType": "uint256",
          "name": "tokenId",
          "type": "uint256"
        },
        {
          "internalType": "uint256",
          "name": "salePrice",
          "type": "uint256"
        }
      ],
      "name": "royaltyInfo",
      "outputs": [
        {
          "internalType": "address",
          "name": "receiver",
          "type": "address"
        },
        {
          "internalType": "uint256",
          "name": "amount",
          "type": "uint256"
        }
      ],
      "stateMutability": "view",
      "type": "function"
    },
    {
      "inputs": [
        {
          "internalType": "address",
          "name": "from",
          "type": "address"
        },
        {
          "internalType": "address",
          "name": "to",
          "type": "address"
        },
        {
          "internalType": "uint256",
          "name": "tokenId",
          "type": "uint256"
        }
      ],
      "name": "safeTransferFrom",
      "outputs": [],
      "stateMutability": "nonpayable",
      "type": "function"
    },
    {
      "inputs": [
        {
          "internalType": "address",
          "name": "from",
          "type": "address"
        },
        {
          "internalType": "address",
          "name": "to",
          "type": "address"
        },
        {
          "internalType": "uint256",
          "name": "tokenId",
          "type": "uint256"
        },
        {
          "internalType": "bytes",
          "name": "data",
          "type": "bytes"
        }
      ],
      "name": "safeTransferFrom",
      "outputs": [],
      "stateMutability": "nonpayable",
      "type": "function"
    },
    {
      "inputs": [
        {
          "internalType": "address",
          "name": "operator",
          "type": "address"
        },
        {
          "internalType": "bool",
          "name": "approved",
          "type": "bool"
        }
      ],
      "name": "setApprovalForAll",
      "outputs": [],
      "stateMutability": "nonpayable",
      "type": "function"
    },
    {
      "inputs": [
        {
          "internalType": "address",
          "name": "newFactory",
          "type": "address"
        }
      ],
      "name": "setSplitterFactory",
      "outputs": [],
      "stateMutability": "nonpayable",
      "type": "function"
    },
    {
      "inputs": [
        {
          "internalType": "address",
          "name": "newTreasury",
          "type": "address"
        }
      ],
      "name": "setTreasury",
      "outputs": [],
      "stateMutability": "nonpayable",
      "type": "function"
    },
    {
      "inputs": [],
      "name": "splitterFactory",
      "outputs": [
        {
          "internalType": "contract IRoyaltySplitterFactory",
          "name": "",
          "type": "address"
        }
      ],
      "stateMutability": "view",
      "type": "function"
    },
    {
      "inputs": [
        {
          "internalType": "bytes4",
          "name": "interfaceId",
          "type": "bytes4"
        }
      ],
      "name": "supportsInterface",
      "outputs": [
        {
          "internalType": "bool",
          "name": "",
          "type": "bool"
        }
      ],
      "stateMutability": "view",
      "type": "function"
    },
    {
      "inputs": [],
      "name": "symbol",
      "outputs": [
        {
          "internalType": "string",
          "name": "",
          "type": "string"
        }
      ],
      "stateMutability": "view",
      "type": "function"
    },
    {
      "inputs": [
        {
          "internalType": "uint256",
          "name": "tokenId",
          "type": "uint256"
        }
      ],
      "name": "tokenURI",
      "outputs": [
        {
          "internalType": "string",
          "name": "",
          "type": "string"
        }
      ],
      "stateMutability": "view",
      "type": "function"
    },
    {
      "inputs": [
        {
          "internalType": "address",
          "name": "from",
          "type": "address"
        },
        {
          "internalType": "address",
          "name": "to",
          "type": "address"
        },
        {
          "internalType": "uint256",
          "name": "tokenId",
          "type": "uint256"
        }
      ],
      "name": "transferFrom",
      "outputs": [],
      "stateMutability": "nonpayable",
      "type": "function"
    },
    {
      "inputs": [],
      "name": "treasury",
      "outputs": [
        {
          "internalType": "address",
          "name": "",
          "type": "address"
        }
      ],
      "stateMutability": "view",
      "type": "function"
    }
  ],
  "bytecode": "0x60806040523480156200001157600080fd5b5060405162002c4d38038062002c4d83398101604081905262000034916200041c565b848460006200004483826200055f565b5060016200005382826200055f565b5050506001600160a01b0383166200009f5760405162461bcd60e51b815260206004820152600a602482015269074726561737572793d360b41b60448201526064015b60405180910390fd5b6001600160a01b038216620000e35760405162461bcd60e51b81526020600482015260096024820152680666163746f72793d360bc1b604482015260640162000096565b620000f0600033620001dd565b506200011d7f9f2df0fed2c77648de5860a4cc508cd0818c85b8b8a1ab4ceeef8d981c8956a633620001dd565b50600b80546001600160a01b038086166001600160a01b03199283168117909355600c8054918616919092161790556200015a906101f462000290565b600b546040516101f481526001600160a01b03909116907fe12d7d5bdb8218a22277dca8f854dd4573a1cea3d3e4808dc567df9eb1c14bf49060200160405180910390a26040516001600160a01b038316907f32e9e30c2fcda9e00aad4ed625d3c0dfedeade933d4f9454b6c78ef956f91bb590600090a250505050506200062b565b60008281526009602090815260408083206001600160a01b038516845290915281205460ff16620002865760008381526009602090815260408083206001600160a01b03861684529091529020805460ff191660011790556200023d3390565b6001600160a01b0316826001600160a01b0316847f2f8788117e7eff1d82e926ec794901d17c78024a50270940304540a733656f0d60405160405180910390a45060016200028a565b5060005b92915050565b6127106001600160601b038216811015620002d157604051636f483d0960e01b81526001600160601b03831660048201526024810182905260440162000096565b6001600160a01b038316620002fd57604051635b6cc80560e11b81526000600482015260240162000096565b50604080518082019091526001600160a01b039092168083526001600160601b039091166020909201829052600160a01b90910217600755565b634e487b7160e01b600052604160045260246000fd5b600082601f8301126200035f57600080fd5b81516001600160401b03808211156200037c576200037c62000337565b604051601f8301601f19908116603f01168101908282118183101715620003a757620003a762000337565b8160405283815260209250866020858801011115620003c557600080fd5b600091505b83821015620003e95785820183015181830184015290820190620003ca565b6000602085830101528094505050505092915050565b80516001600160a01b03811681146200041757600080fd5b919050565b600080600080600060a086880312156200043557600080fd5b85516001600160401b03808211156200044d57600080fd5b6200045b89838a016200034d565b965060208801519150808211156200047257600080fd5b5062000481888289016200034d565b9450506200049260408701620003ff565b9250620004a260608701620003ff565b60808701519092506001600160601b0381168114620004c057600080fd5b809150509295509295909350565b600181811c90821680620004e357607f821691505b6020821081036200050457634e487b7160e01b600052602260045260246000fd5b50919050565b601f8211156200055a576000816000526020600020601f850160051c81016020861015620005355750805b601f850160051c820191505b81811015620005565782815560010162000541565b5050505b505050565b81516001600160401b038111156200057b576200057b62000337565b62000593816200058c8454620004ce565b846200050a565b602080601f831160018114620005cb5760008415620005b25750858301515b600019600386901b1c1916600185901b17855562000556565b600085815260208120601f198616915b82811015620005fc57888601518255948401946001909101908401620005db565b50858210156200061b5787850151600019600388901b60f8161c191681555b5050505050600190811b01905550565b612612806200063b6000396000f3fe608060405234801561001057600080fd5b50600436106102325760003560e01c806370a0823111610130578063b09afec1116100b8578063e985e9c51161007c578063e985e9c51461053c578063ee9852341461054f578063f0f4426014610576578063f1b0aa1514610589578063f255ed63146105b457600080fd5b8063b09afec1146104b7578063b88d4fde146104dc578063c87b56dd146104ef578063d539139314610502578063d547741f1461052957600080fd5b806395d89b41116100ff57806395d89b41146104795780639907119014610481578063a217fddf14610494578063a22cb4651461049c578063a8e5862d146104af57600080fd5b806370a0823114610437578063758c5dda1461044a5780637918413b1461045357806391d148541461046657600080fd5b806336568abe116101be578063589a174311610182578063589a1743146103b85780635b1ab434146103cb57806361d027b3146103ec5780636352211e146103ff5780636a8e07b11461041257600080fd5b806336568abe146103595780633c95956e1461036c57806342842e0e1461037f57806342966c68146103925780635608d9e5146103a557600080fd5b806323b872dd1161020557806323b872dd146102b4578063248a9ca3146102c75780632a55205a146102f85780632b4eec8b1461032a5780632f2ff15d1461034657600080fd5b806301ffc9a71461023757806306fdde031461025f578063081812fc14610274578063095ea7b31461029f575b600080fd5b61024a610245366004611e9f565b6105e4565b60405190151581526020015b60405180910390f35b6102676105f5565b6040516102569190611f0c565b610287610282366004611f1f565b610687565b6040516001600160a01b039091168152602001610256565b6102b26102ad366004611f4d565b6106b0565b005b6102b26102c2366004611f79565b6106bf565b6102ea6102d5366004611f1f565b60009081526009602052604090206001015490565b604051908152602001610256565b61030b610306366004611fba565b61074f565b604080516001600160a01b039093168352602083019190915201610256565b610333610fa081565b60405161ffff9091168152602001610256565b6102b2610354366004611fdc565b6107d4565b6102b2610367366004611fdc565b6107f9565b6102b261037a36600461200c565b610831565b6102b261038d366004611f79565b6108e5565b6102b26103a0366004611f1f565b610900565b600c54610287906001600160a01b031681565b6102876103c6366004611f1f565b6109f8565b6103d46101f481565b6040516001600160601b039091168152602001610256565b600b54610287906001600160a01b031681565b61028761040d366004611f1f565b610a20565b6104256104203660046120f0565b610a2b565b60405161025696959493929190612124565b6102ea610445366004612172565b610b17565b61033361177081565b6102b2610461366004612172565b610b5f565b61024a610474366004611fdc565b610bf7565b610267610c22565b6102ea61048f36600461218f565b610c31565b6102ea600081565b6102b26104aa366004612204565b610f24565b600a546102ea565b6104ca6104c5366004611f1f565b610f2f565b60405161025696959493929190612237565b6102b26104ea366004612296565b611052565b6102676104fd366004611f1f565b61106a565b6102ea7f9f2df0fed2c77648de5860a4cc508cd0818c85b8b8a1ab4ceeef8d981c8956a681565b6102b2610537366004611fdc565b611075565b61024a61054a366004612315565b61109a565b6102ea7fdeccffc5821b949817830292498e44ccb6097e4b74ff2f2db960723873324def81565b6102b2610584366004612172565b6110c8565b61059c610597366004611f1f565b6111b5565b6040516001600160401b039091168152602001610256565b6105c76105c2366004611f1f565b6111dd565b604080519283526001600160401b03909116602083015201610256565b60006105ef82611217565b92915050565b60606000805461060490612343565b80601f016020809104026020016040519081016040528092919081815260200182805461063090612343565b801561067d5780601f106106525761010080835404028352916020019161067d565b820191906000526020600020905b81548152906001019060200180831161066057829003601f168201915b5050505050905090565b60006106928261123c565b506000828152600460205260409020546001600160a01b03166105ef565b6106bb828233611275565b5050565b6001600160a01b0382166106ee57604051633250574960e11b8152600060048201526024015b60405180910390fd5b60006106fb838333611282565b9050836001600160a01b0316816001600160a01b031614610749576040516364283d7b60e01b81526001600160a01b03808616600483015260248201849052821660448201526064016106e5565b50505050565b600082815260086020526040812080548291906001600160a01b03811690600160a01b90046001600160601b0316816107a35750506007546001600160a01b03811690600160a01b90046001600160601b03165b60006127106107bb6001600160601b03841689612393565b6107c591906123aa565b92989297509195505050505050565b6000828152600960205260409020600101546107ef8161137b565b6107498383611388565b6001600160a01b03811633146108225760405163334bd91960e11b815260040160405180910390fd5b61082c828261141c565b505050565b7fdeccffc5821b949817830292498e44ccb6097e4b74ff2f2db960723873324def61085b8161137b565b6108648461123c565b506000848152600f602090815260408083208690556010825291829020805467ffffffffffffffff1916426001600160401b03169081179091558251868152918201526001600160a01b0384169186917f4c74fbd67cf498dce33f6bd2ad11cecec9fafdfbeb86eccee102391b465e46f2910160405180910390a350505050565b61082c83838360405180602001604052806000815250611052565b600061090b8161137b565b6000828152601260205260408120805461092490612343565b80601f016020809104026020016040519081016040528092919081815260200182805461095090612343565b801561099d5780601f106109725761010080835404028352916020019161099d565b820191906000526020600020905b81548152906001019060200180831161098057829003601f168201915b505050505090506000815111156109ef576011816040516109be91906123cc565b9081526020016040518091039020600090556012600084815260200190815260200160002060006109ef9190611e3b565b61082c83611489565b6000610a038261123c565b50506000908152600d60205260409020546001600160a01b031690565b60006105ef8261123c565b60008060606000806000601187604051610a4591906123cc565b908152602001604051809103902054905080600003610a995760405162461bcd60e51b815260206004820152601060248201526f191bdb585a5b881b9bdd08199bdd5b9960821b60448201526064016106e5565b610aa28161123c565b506000818152600d6020908152604080832054600e909252909120546001600160a01b0390911696506001600160401b03169450610adf8161106a565b6000828152600f60209081526040808320546010909252909120549799969850909690956001600160401b0390911694509092509050565b60006001600160a01b038216610b43576040516322718ad960e21b8152600060048201526024016106e5565b506001600160a01b031660009081526003602052604090205490565b6000610b6a8161137b565b6001600160a01b038216610bac5760405162461bcd60e51b81526020600482015260096024820152680666163746f72793d360bc1b60448201526064016106e5565b600c80546001600160a01b0319166001600160a01b0384169081179091556040517f32e9e30c2fcda9e00aad4ed625d3c0dfedeade933d4f9454b6c78ef956f91bb590600090a25050565b60009182526009602090815260408084206001600160a01b0393909316845291905290205460ff1690565b60606001805461060490612343565b60007f9f2df0fed2c77648de5860a4cc508cd0818c85b8b8a1ab4ceeef8d981c8956a6610c5d8161137b565b6001600160a01b038516610c9c5760405162461bcd60e51b81526004016106e5906020808252600490820152630746f3d360e41b604082015260600190565b6000835111610cdc5760405162461bcd60e51b815260206004820152600c60248201526b646f6d61696e20656d70747960a01b60448201526064016106e5565b601183604051610cec91906123cc565b908152602001604051809103902054600014610d3a5760405162461bcd60e51b815260206004820152600d60248201526c646f6d61696e2065786973747360981b60448201526064016106e5565b600a60008154610d49906123e8565b91829055509150610d5a8583611495565b610d6482856114af565b6000828152600d6020908152604080832080546001600160a01b0319166001600160a01b038a16179055600e90915290819020805467ffffffffffffffff1916426001600160401b0316179055518290601190610dc29086906123cc565b9081526040805160209281900383019020929092556000848152601290915220610dec8482612449565b50600c54600b5460405163229cc5d760e11b81526001600160a01b0388811660048301529182166024820152610fa06044820152611770606482015260009291909116906345398bae906084016020604051808303816000875af1158015610e58573d6000803e3d6000fd5b505050506040513d601f19601f82011682018060405250810190610e7c9190612508565b9050610e8b83826101f46114ff565b6040516101f481526001600160a01b0382169084907f73d16f6429849985321256069c4aef47cff4472ae48be54184ef8195bec7c8029060200160405180910390a3856001600160a01b0316866001600160a01b0316847f315659941dea0cbc07c1f922502c48c007582c3082d0ed16c914402133683e838888604051610f13929190612525565b60405180910390a450509392505050565b6106bb3383836115c1565b60008060606000806060610f428761123c565b5060008781526012602052604090208054610f5c90612343565b80601f0160208091040260200160405190810160405280929190818152602001828054610f8890612343565b8015610fd55780601f10610faa57610100808354040283529160200191610fd5565b820191906000526020600020905b815481529060010190602001808311610fb857829003601f168201915b50505060008a8152600d6020908152604080832054600e909252909120546001600160a01b0390911699506001600160401b0316975091925061101b915088905061106a565b6000978852600f60209081526040808a205460109092529098205496989597909690956001600160401b0390911694509092509050565b61105d8484846106bf565b6107493385858585611660565b60606105ef8261178b565b6000828152600960205260409020600101546110908161137b565b610749838361141c565b6001600160a01b03918216600090815260056020908152604080832093909416825291909152205460ff1690565b60006110d38161137b565b6001600160a01b0382166111165760405162461bcd60e51b815260206004820152600a602482015269074726561737572793d360b41b60448201526064016106e5565b600b80546001600160a01b0319166001600160a01b03841617905561113d826101f461189c565b6040516001600160a01b038316907f7dae230f18360d76a040c81f050aa14eb9d6dc7901b20fc5d855e2a20fe814d190600090a26040516101f481526001600160a01b038316907fe12d7d5bdb8218a22277dca8f854dd4573a1cea3d3e4808dc567df9eb1c14bf49060200160405180910390a25050565b60006111c08261123c565b50506000908152600e60205260409020546001600160401b031690565b6000806111e98361123c565b5050506000908152600f602090815260408083205460109092529091205490916001600160401b0390911690565b60006001600160e01b03198216637965db0b60e01b14806105ef57506105ef8261193f565b6000818152600260205260408120546001600160a01b0316806105ef57604051637e27328960e01b8152600481018490526024016106e5565b61082c8383836001611964565b6000828152600260205260408120546001600160a01b03908116908316156112af576112af818486611a6a565b6001600160a01b038116156112ed576112cc600085600080611964565b6001600160a01b038116600090815260036020526040902080546000190190555b6001600160a01b0385161561131c576001600160a01b0385166000908152600360205260409020805460010190555b60008481526002602052604080822080546001600160a01b0319166001600160a01b0389811691821790925591518793918516917fddf252ad1be2c89b69c2b068fc378daa952ba7f163c4a11628f55a4df523b3ef91a4949350505050565b6113858133611ace565b50565b60006113948383610bf7565b6114145760008381526009602090815260408083206001600160a01b03861684529091529020805460ff191660011790556113cc3390565b6001600160a01b0316826001600160a01b0316847f2f8788117e7eff1d82e926ec794901d17c78024a50270940304540a733656f0d60405160405180910390a45060016105ef565b5060006105ef565b60006114288383610bf7565b156114145760008381526009602090815260408083206001600160a01b0386168085529252808320805460ff1916905551339286917ff6391f5c32d9c69d2a47ea670b442974b53935d1edc7fd64eb21e047a839171b9190a45060016105ef565b6106bb60008233611282565b6106bb828260405180602001604052806000815250611b07565b60008281526006602052604090206114c78282612449565b506040518281527ff8e1a15aba9398e019f0b49df1a4fde98ee17ae345cb5f6b5e2c27f5033e8ce79060200160405180910390a15050565b6127106001600160601b0382168110156115455760405163dfd1fc1b60e01b8152600481018590526001600160601b0383166024820152604481018290526064016106e5565b6001600160a01b03831661157657604051634b4f842960e11b815260048101859052600060248201526044016106e5565b506040805180820182526001600160a01b0393841681526001600160601b0392831660208083019182526000968752600890529190942093519051909116600160a01b029116179055565b6001600160a01b0382166115f357604051630b61174360e31b81526001600160a01b03831660048201526024016106e5565b6001600160a01b03838116600081815260056020908152604080832094871680845294825291829020805460ff191686151590811790915591519182527f17307eab39ab6107e8899845ad3d59bd9653f200f220920489ca2b5937696c31910160405180910390a3505050565b6001600160a01b0383163b1561178457604051630a85bd0160e11b81526001600160a01b0384169063150b7a02906116a2908890889087908790600401612553565b6020604051808303816000875af19250505080156116dd575060408051601f3d908101601f191682019092526116da91810190612590565b60015b611746573d80801561170b576040519150601f19603f3d011682016040523d82523d6000602084013e611710565b606091505b50805160000361173e57604051633250574960e11b81526001600160a01b03851660048201526024016106e5565b805160208201fd5b6001600160e01b03198116630a85bd0160e11b1461178257604051633250574960e11b81526001600160a01b03851660048201526024016106e5565b505b5050505050565b60606117968261123c565b50600082815260066020526040812080546117b090612343565b80601f01602080910402602001604051908101604052809291908181526020018280546117dc90612343565b80156118295780601f106117fe57610100808354040283529160200191611829565b820191906000526020600020905b81548152906001019060200180831161180c57829003601f168201915b50505050509050600061184760408051602081019091526000815290565b90508051600003611859575092915050565b81511561188b5780826040516020016118739291906125ad565b60405160208183030381529060405292505050919050565b61189484611b1f565b949350505050565b6127106001600160601b0382168110156118db57604051636f483d0960e01b81526001600160601b0383166004820152602481018290526044016106e5565b6001600160a01b03831661190557604051635b6cc80560e11b8152600060048201526024016106e5565b50604080518082019091526001600160a01b039092168083526001600160601b039091166020909201829052600160a01b90910217600755565b60006001600160e01b0319821663152a902d60e11b14806105ef57506105ef82611b94565b808061197857506001600160a01b03821615155b15611a3a5760006119888461123c565b90506001600160a01b038316158015906119b45750826001600160a01b0316816001600160a01b031614155b80156119c757506119c5818461109a565b155b156119f05760405163a9fbf51f60e01b81526001600160a01b03841660048201526024016106e5565b8115611a385783856001600160a01b0316826001600160a01b03167f8c5be1e5ebec7d5bd14f71427d1e84f3dd0314c0f7b2291e5b200ac8c7c3b92560405160405180910390a45b505b5050600090815260046020526040902080546001600160a01b0319166001600160a01b0392909216919091179055565b611a75838383611bb9565b61082c576001600160a01b038316611aa357604051637e27328960e01b8152600481018290526024016106e5565b60405163177e802f60e01b81526001600160a01b0383166004820152602481018290526044016106e5565b611ad88282610bf7565b6106bb5760405163e2517d3f60e01b81526001600160a01b0382166004820152602481018390526044016106e5565b611b118383611c1c565b61082c336000858585611660565b6060611b2a8261123c565b506000611b4260408051602081019091526000815290565b90506000815111611b625760405180602001604052806000815250611b8d565b80611b6c84611c81565b604051602001611b7d9291906125ad565b6040516020818303038152906040525b9392505050565b60006001600160e01b03198216632483248360e11b14806105ef57506105ef82611d13565b60006001600160a01b038316158015906118945750826001600160a01b0316846001600160a01b03161480611bf35750611bf3848461109a565b806118945750506000908152600460205260409020546001600160a01b03908116911614919050565b6001600160a01b038216611c4657604051633250574960e11b8152600060048201526024016106e5565b6000611c5483836000611282565b90506001600160a01b0381161561082c576040516339e3563760e11b8152600060048201526024016106e5565b60606000611c8e83611d63565b60010190506000816001600160401b03811115611cad57611cad612045565b6040519080825280601f01601f191660200182016040528015611cd7576020820181803683370190505b5090508181016020015b600019016f181899199a1a9b1b9c1cb0b131b232b360811b600a86061a8153600a8504945084611ce157509392505050565b60006001600160e01b031982166380ac58cd60e01b1480611d4457506001600160e01b03198216635b5e139f60e01b145b806105ef57506301ffc9a760e01b6001600160e01b03198316146105ef565b60008072184f03e93ff9f4daa797ed6e38ed64bf6a1f0160401b8310611da25772184f03e93ff9f4daa797ed6e38ed64bf6a1f0160401b830492506040015b6d04ee2d6d415b85acef81000000008310611dce576d04ee2d6d415b85acef8100000000830492506020015b662386f26fc100008310611dec57662386f26fc10000830492506010015b6305f5e1008310611e04576305f5e100830492506008015b6127108310611e1857612710830492506004015b60648310611e2a576064830492506002015b600a83106105ef5760010192915050565b508054611e4790612343565b6000825580601f10611e57575050565b601f01602090049060005260206000209081019061138591905b80821115611e855760008155600101611e71565b5090565b6001600160e01b03198116811461138557600080fd5b600060208284031215611eb157600080fd5b8135611b8d81611e89565b60005b83811015611ed7578181015183820152602001611ebf565b50506000910152565b60008151808452611ef8816020860160208601611ebc565b601f01601f19169290920160200192915050565b602081526000611b8d6020830184611ee0565b600060208284031215611f3157600080fd5b5035919050565b6001600160a01b038116811461138557600080fd5b60008060408385031215611f6057600080fd5b8235611f6b81611f38565b946020939093013593505050565b600080600060608486031215611f8e57600080fd5b8335611f9981611f38565b92506020840135611fa981611f38565b929592945050506040919091013590565b60008060408385031215611fcd57600080fd5b50508035926020909101359150565b60008060408385031215611fef57600080fd5b82359150602083013561200181611f38565b809150509250929050565b60008060006060848603121561202157600080fd5b8335925060208401359150604084013561203a81611f38565b809150509250925092565b634e487b7160e01b600052604160045260246000fd5b60006001600160401b038084111561207557612075612045565b604051601f8501601f19908116603f0116810190828211818310171561209d5761209d612045565b816040528093508581528686860111156120b657600080fd5b858560208301376000602087830101525050509392505050565b600082601f8301126120e157600080fd5b611b8d8383356020850161205b565b60006020828403121561210257600080fd5b81356001600160401b0381111561211857600080fd5b611894848285016120d0565b60018060a01b038716815260006001600160401b03808816602084015260c0604084015261215560c0840188611ee0565b606084019690965293909316608082015260a00152509392505050565b60006020828403121561218457600080fd5b8135611b8d81611f38565b6000806000606084860312156121a457600080fd5b83356121af81611f38565b925060208401356001600160401b03808211156121cb57600080fd5b6121d7878388016120d0565b935060408601359150808211156121ed57600080fd5b506121fa868287016120d0565b9150509250925092565b6000806040838503121561221757600080fd5b823561222281611f38565b91506020830135801515811461200157600080fd5b60018060a01b038716815260006001600160401b03808816602084015260c0604084015261226860c0840188611ee0565b866060850152818616608085015283810360a08501526122888186611ee0565b9a9950505050505050505050565b600080600080608085870312156122ac57600080fd5b84356122b781611f38565b935060208501356122c781611f38565b92506040850135915060608501356001600160401b038111156122e957600080fd5b8501601f810187136122fa57600080fd5b6123098782356020840161205b565b91505092959194509250565b6000806040838503121561232857600080fd5b823561233381611f38565b9150602083013561200181611f38565b600181811c9082168061235757607f821691505b60208210810361237757634e487b7160e01b600052602260045260246000fd5b50919050565b634e487b7160e01b600052601160045260246000fd5b80820281158282048414176105ef576105ef61237d565b6000826123c757634e487b7160e01b600052601260045260246000fd5b500490565b600082516123de818460208701611ebc565b9190910192915050565b6000600182016123fa576123fa61237d565b5060010190565b601f82111561082c576000816000526020600020601f850160051c8101602086101561242a5750805b601f850160051c820191505b8181101561178257828155600101612436565b81516001600160401b0381111561246257612462612045565b612476816124708454612343565b84612401565b602080601f8311600181146124ab57600084156124935750858301515b600019600386901b1c1916600185901b178555611782565b600085815260208120601f198616915b828110156124da578886015182559484019460019091019084016124bb565b50858210156124f85787850151600019600388901b60f8161c191681555b5050505050600190811b01905550565b60006020828403121561251a57600080fd5b8151611b8d81611f38565b6040815260006125386040830185611ee0565b828103602084015261254a8185611ee0565b95945050505050565b6001600160a01b038581168252841660208201526040810183905260806060820181905260009061258690830184611ee0565b9695505050505050565b6000602082840312156125a257600080fd5b8151611b8d81611e89565b600083516125bf818460208801611ebc565b8351908301906125d3818360208801611ebc565b0194935050505056fea26469706673582212206b080cb9a8d622c21841b660628b054c46620d123d328f05ff271c5bb88f2fa064736f6c63430008180033",
  "linkReferences": {},
  "deployedLinkReferences": {}
}